{"abi":[{"type":"constructor","inputs":[],"stateMutability":"nonpayable"},{"type":"function","name":"approve","inputs":[{"name":"to","type":"address","internalType":"address"},{"name":"tokenId","type":"uint256","internalType":"uint256"}],"outputs":[],"stateMutability":"nonpayable"},{"type":"function","name":"balanceOf","inputs":[{"name":"owner","type":"address","internalType":"address"}],"outputs":[{"name":"","type":"uint256","internalType":"uint256"}],"stateMutability":"view"},{"type":"function","name":"files","inputs":[{"name":"","type":"uint256","internalType":"uint256"}],"outputs":[{"name":"cid","type":"string","internalType":"string"},{"name":"fileName","type":"string","internalType":"string"},{"name":"uploader","type":"address","internalType":"address"},{"name":"timestamp","type":"uint256","internalType":"uint256"}],"stateMutability":"view"},{"type":"function","name":"getApproved","inputs":[{"name":"tokenId","type":"uint256","internalType":"uint256"}],"outputs":[{"name":"","type":"address","internalType":"address"}],"stateMutability":"view"},{"type":"function","name":"getFile","inputs":[{"name":"tokenId","type":"uint256","internalType":"uint256"}],"outputs":[{"name":"","type":"tuple","internalType":"struct FileStorageNFT.FileData","components":[{"name":"cid","type":"string","internalType":"string"},{"name":"fileName","type":"string","internalType":"string"},{"name":"uploader","type":"address","internalType":"address"},{"name":"timestamp","type":"uint256","internalType":"uint256"}]}],"stateMutability":"view"},{"type":"function","name":"isApprovedForAll","inputs":[{"name":"owner","type":"address","internalType":"address"},{"name":"operator","type":"address","internalType":"address"}],"outputs":[{"name":"","type":"bool","internalType":"bool"}],"stateMutability":"view"},{"type":"function","name":"isOwner","inputs":[{"name":"tokenId","type":"uint256","internalType":"uint256"},{"name":"user","type":"address","internalType":"address"}],"outputs":[{"name":"","type":"bool","internalType":"bool"}],"stateMutability":"view"},{"type":"function","name":"name","inputs":[],"outputs":[{"name":"","type":"string","internalType":"string"}],"stateMutability":"view"},{"type":"function","name":"owner","inputs":[],"outputs":[{"name":"","type":"address","internalType":"address"}],"stateMutability":"view"},{"type":"function","name":"ownerOf","inputs":[{"name":"tokenId","type":"uint256","internalType":"uint256"}],"outputs":[{"name":"","type":"address","internalType":"address"}],"stateMutability":"view"},{"type":"function","name":"renounceOwnership","inputs":[],"outputs":[],"stateMutability":"nonpayable"},{"type":"function","name":"safeTransferFrom","inputs":[{"name":"from","type":"address","internalType":"address"},{"name":"to","type":"address","internalType":"address"},{"name":"tokenId","type":"uint256","internalType":"uint256"}],"outputs":[],"stateMutability":"nonpayable"},{"type":"function","name":"safeTransferFrom","inputs":[{"name":"from","type":"address","internalType":"address"},{"name":"to","type":"address","internalType":"address"},{"name":"tokenId","type":"uint256","internalType":"uint256"},{"name":"data","type":"bytes","internalType":"bytes"}],"outputs":[],"stateMutability":"nonpayable"},{"type":"function","name":"setApprovalForAll","inputs":[{"name":"operator","type":"address","internalType":"address"},{"name":"approved","type":"bool","internalType":"bool"}],"outputs":[],"stateMutability":"nonpayable"},{"type":"function","name":"supportsInterface","inputs":[{"name":"interfaceId","type":"bytes4","internalType":"bytes4"}],"outputs":[{"name":"","type":"bool","internalType":"bool"}],"stateMutability":"view"},{"type":"function","name":"symbol","inputs":[],"outputs":[{"name":"","type":"string","internalType":"string"}],"stateMutability":"view"},{"type":"function","name":"tokenCounter","inputs":[],"outputs":[{"name":"","type":"uint256","internalType":"uint256"}],"stateMutability":"view"},{"type":"function","name":"tokenURI","inputs":[{"name":"tokenId","type":"uint256","internalType":"uint256"}],"outputs":[{"name":"","type":"string","internalType":"string"}],"stateMutability":"view"},{"type":"function","name":"transferFrom","inputs":[{"name":"from","type":"address","internalType":"address"},{"name":"to","type":"address","internalType":"address"},{"name":"tokenId","type":"uint256","internalType":"uint256"}],"outputs":[],"stateMutability":"nonpayable"},{"type":"function","name":"transferOwnership","inputs":[{"name":"newOwner","type":"address","internalType":"address"}],"outputs":[],"stateMutability":"nonpayable"},{"type":"function","name":"uploadFile","inputs":[{"name":"_cid","type":"string","internalType":"string"},{"name":"_fileName","type":"string","internalType":"string"}],"outputs":[{"name":"","type":"uint256","internalType":"uint256"}],"stateMutability":"nonpayable"},{"type":"event","name":"Approval","inputs":[{"name":"owner","type":"address","indexed":true,"internalType":"address"},{"name":"approved","type":"address","indexed":true,"internalType":"address"},{"name":"tokenId","type":"uint256","indexed":true,"internalType":"uint256"}],"anonymous":false},{"type":"event","name":"ApprovalForAll","inputs":[{"name":"owner","type":"address","indexed":true,"internalType":"address"},{"name":"operator","type":"address","indexed":true,"internalType":"address"},{"name":"approved","type":"bool","indexed":false,"internalType":"bool"}],"anonymous":false},{"type":"event","name":"FileUploaded","inputs":[{"name":"tokenId","type":"uint256","indexed":true,"internalType":"uint256"},{"name":"uploader","type":"address","indexed":true,"internalType":"address"},{"name":"cid","type":"string","indexed":false,"internalType":"string"},{"name":"fileName","type":"string","indexed":false,"internalType":"string"}],"anonymous":false},{"type":"event","name":"OwnershipTransferred","inputs":[{"name":"previousOwner","type":"address","indexed":true,"internalType":"address"},{"name":"newOwner","type":"address","indexed":true,"internalType":"address"}],"anonymous":false},{"type":"event","name":"Transfer","inputs":[{"name":"from","type":"address","indexed":true,"internalType":"address"},{"name":"to","type":"address","indexed":true,"internalType":"address"},{"name":"tokenId","type":"uint256","indexed":true,"internalType":"uint256"}],"anonymous":false},{"type":"error","name":"ERC721IncorrectOwner","inputs":[{"name":"sender","type":"address","internalType":"address"},{"name":"tokenId","type":"uint256","internalType":"uint256"},{"name":"owner","type":"address","internalType":"address"}]},{"type":"error","name":"ERC721InsufficientApproval","inputs":[{"name":"operator","type":"address","internalType":"address"},{"name":"tokenId","type":"uint256","internalType":"uint256"}]},{"type":"error","name":"ERC721InvalidApprover","inputs":[{"name":"approver","type":"address","internalType":"address"}]},{"type":"error","name":"ERC721InvalidOperator","inputs":[{"name":"operator","type":"address","internalType":"address"}]},{"type":"error","name":"ERC721InvalidOwner","inputs":[{"name":"owner","type":"address","internalType":"address"}]},{"type":"error","name":"ERC721InvalidReceiver","inputs":[{"name":"receiver","type":"address","internalType":"address"}]},{"type":"error","name":"ERC721InvalidSender","inputs":[{"name":"sender","type":"address","internalType":"address"}]},{"type":"error","name":"ERC721NonexistentToken","inputs":[{"name":"tokenId","type":"uint256","internalType":"uint256"}]},{"type":"error","name":"OwnableInvalidOwner","inputs":[{"name":"owner","type":"address","internalType":"address"}]},{"type":"error","name":"OwnableUnauthorizedAccount","inputs":[{"name":"account","type":"address","internalType":"address"}]}],"bytecode":{"object":"0x608060405234801561000f575f5ffd5b50336040518060400160405280600e81526020017f46696c6553746f726167654e46540000000000000000000000000000000000008152506040518060400160405280600581526020017f46534e4654000000000000000000000000000000000000000000000000000000815250815f908161008b9190610434565b50806001908161009b9190610434565b5050505f73ffffffffffffffffffffffffffffffffffffffff168173ffffffffffffffffffffffffffffffffffffffff160361010e575f6040517f1e4fbdf70000000000000000000000000000000000000000000000000000000081526004016101059190610542565b60405180910390fd5b61011d8161012360201b60201c565b5061055b565b5f60065f9054906101000a900473ffffffffffffffffffffffffffffffffffffffff1690508160065f6101000a81548173ffffffffffffffffffffffffffffffffffffffff021916908373ffffffffffffffffffffffffffffffffffffffff1602179055508173ffffffffffffffffffffffffffffffffffffffff168173ffffffffffffffffffffffffffffffffffffffff167f8be0079c531659141344cd1fd0a4f28419497f9722a3daafe3b4186f6b6457e060405160405180910390a35050565b5f81519050919050565b7f4e487b71000000000000000000000000000000000000000000000000000000005f52604160045260245ffd5b7f4e487b71000000000000000000000000000000000000000000000000000000005f52602260045260245ffd5b5f600282049050600182168061026157607f821691505b6020821081036102745761027361021d565b5b50919050565b5f819050815f5260205f209050919050565b5f6020601f8301049050919050565b5f82821b905092915050565b5f600883026102d67fffffffffffffffffffffffffffffffffffffffffffffffffffffffffffffffff8261029b565b6102e0868361029b565b95508019841693508086168417925050509392505050565b5f819050919050565b5f819050919050565b5f61032461031f61031a846102f8565b610301565b6102f8565b9050919050565b5f819050919050565b61033d8361030a565b6103516103498261032b565b8484546102a7565b825550505050565b5f5f905090565b610368610359565b610373818484610334565b505050565b5f5b828110156103995761038e5f828401610360565b60018101905061037a565b505050565b601f8211156103ec57828211156103eb576103b88161027a565b6103c18361028c565b6103ca8561028c565b60208610156103d7575f90505b8083016103e682840382610378565b505050505b5b505050565b5f82821c905092915050565b5f61040c5f19846008026103f1565b1980831691505092915050565b5f61042483836103fd565b9150826002028217905092915050565b61043d826101e6565b67ffffffffffffffff811115610456576104556101f0565b5b610460825461024a565b61046b82828561039e565b5f60209050601f83116001811461049c575f841561048a578287015190505b6104948582610419565b8655506104fb565b601f1984166104aa8661027a565b5f5b828110156104d1578489015182556001820191506020850194506020810190506104ac565b868310156104ee57848901516104ea601f8916826103fd565b8355505b6001600288020188555050505b505050505050565b5f73ffffffffffffffffffffffffffffffffffffffff82169050919050565b5f61052c82610503565b9050919050565b61053c81610522565b82525050565b5f6020820190506105555f830184610533565b92915050565b612b82806105685f395ff3fe608060405234801561000f575f5ffd5b5060043610610135575f3560e01c8063715018a6116100b6578063b88d4fde1161007a578063b88d4fde1461035d578063c87b56dd14610379578063d082e381146103a9578063e985e9c5146103c7578063f2fde38b146103f7578063f4c714b41461041357610135565b8063715018a6146102cb5780638da5cb5b146102d557806395d89b41146102f3578063996d50bf14610311578063a22cb4651461034157610135565b80632bfda313116100fd5780632bfda313146101ef57806342842e0e1461021f5780635a5d096c1461023b5780636352211e1461026b57806370a082311461029b57610135565b806301ffc9a71461013957806306fdde0314610169578063081812fc14610187578063095ea7b3146101b757806323b872dd146101d3575b5f5ffd5b610153600480360381019061014e9190611e74565b610446565b6040516101609190611eb9565b60405180910390f35b610171610527565b60405161017e9190611f42565b60405180910390f35b6101a1600480360381019061019c9190611f95565b6105b6565b6040516101ae9190611fff565b60405180910390f35b6101d160048036038101906101cc9190612042565b6105d1565b005b6101ed60048036038101906101e89190612080565b6105e7565b005b61020960048036038101906102049190611f95565b6106e6565b604051610216919061219d565b60405180910390f35b61023960048036038101906102349190612080565b61088f565b005b610255600480360381019061025091906121bd565b6108ae565b6040516102629190611eb9565b60405180910390f35b61028560048036038101906102809190611f95565b6108ee565b6040516102929190611fff565b60405180910390f35b6102b560048036038101906102b091906121fb565b6108ff565b6040516102c29190612235565b60405180910390f35b6102d36109b5565b005b6102dd6109c8565b6040516102ea9190611fff565b60405180910390f35b6102fb6109f0565b6040516103089190611f42565b60405180910390f35b61032b6004803603810190610326919061237a565b610a80565b6040516103389190612235565b60405180910390f35b61035b6004803603810190610356919061241a565b610bc8565b005b610377600480360381019061037291906124f6565b610bde565b005b610393600480360381019061038e9190611f95565b610c03565b6040516103a09190611f42565b60405180910390f35b6103b1610c69565b6040516103be9190612235565b60405180910390f35b6103e160048036038101906103dc9190612576565b610c6f565b6040516103ee9190611eb9565b60405180910390f35b610411600480360381019061040c91906121fb565b610cfd565b005b61042d60048036038101906104289190611f95565b610d81565b60405161043d94939291906125b4565b60405180910390f35b5f7f80ac58cd000000000000000000000000000000000000000000000000000000007bffffffffffffffffffffffffffffffffffffffffffffffffffffffff1916827bffffffffffffffffffffffffffffffffffffffffffffffffffffffff1916148061051057507f5b5e139f000000000000000000000000000000000000000000000000000000007bffffffffffffffffffffffffffffffffffffffffffffffffffffffff1916827bffffffffffffffffffffffffffffffffffffffffffffffffffffffff1916145b80610520575061051f82610ed8565b5b9050919050565b60605f805461053590612632565b80601f016020809104026020016040519081016040528092919081815260200182805461056190612632565b80156105ac5780601f10610583576101008083540402835291602001916105ac565b820191905f5260205f20905b81548152906001019060200180831161058f57829003601f168201915b5050505050905090565b5f6105c082610f41565b506105ca82610fc7565b9050919050565b6105e382826105de611000565b611007565b5050565b5f73ffffffffffffffffffffffffffffffffffffffff168273ffffffffffffffffffffffffffffffffffffffff1603610657575f6040517f64a0ae9200000000000000000000000000000000000000000000000000000000815260040161064e9190611fff565b60405180910390fd5b5f61066a8383610665611000565b611019565b90508373ffffffffffffffffffffffffffffffffffffffff168173ffffffffffffffffffffffffffffffffffffffff16146106e0578382826040517f64283d7b0000000000000000000000000000000000000000000000000000000081526004016106d793929190612662565b60405180910390fd5b50505050565b6106ee611dd2565b60085f8381526020019081526020015f206040518060800160405290815f8201805461071990612632565b80601f016020809104026020016040519081016040528092919081815260200182805461074590612632565b80156107905780601f1061076757610100808354040283529160200191610790565b820191905f5260205f20905b81548152906001019060200180831161077357829003601f168201915b505050505081526020016001820180546107a990612632565b80601f01602080910402602001604051908101604052809291908181526020018280546107d590612632565b80156108205780601f106107f757610100808354040283529160200191610820565b820191905f5260205f20905b81548152906001019060200180831161080357829003601f168201915b50505050508152602001600282015f9054906101000a900473ffffffffffffffffffffffffffffffffffffffff1673ffffffffffffffffffffffffffffffffffffffff1673ffffffffffffffffffffffffffffffffffffffff1681526020016003820154815250509050919050565b6108a983838360405180602001604052805f815250610bde565b505050565b5f8173ffffffffffffffffffffffffffffffffffffffff166108cf846108ee565b73ffffffffffffffffffffffffffffffffffffffff1614905092915050565b5f6108f882610f41565b9050919050565b5f5f73ffffffffffffffffffffffffffffffffffffffff168273ffffffffffffffffffffffffffffffffffffffff1603610970575f6040517f89c62b640000000000000000000000000000000000000000000000000000000081526004016109679190611fff565b60405180910390fd5b60035f8373ffffffffffffffffffffffffffffffffffffffff1673ffffffffffffffffffffffffffffffffffffffff1681526020019081526020015f20549050919050565b6109bd611224565b6109c65f6112ab565b565b5f60065f9054906101000a900473ffffffffffffffffffffffffffffffffffffffff16905090565b6060600180546109ff90612632565b80601f0160208091040260200160405190810160405280929190818152602001828054610a2b90612632565b8015610a765780601f10610a4d57610100808354040283529160200191610a76565b820191905f5260205f20905b815481529060010190602001808311610a5957829003601f168201915b5050505050905090565b5f5f6007549050610a91338261136e565b60405180608001604052808581526020018481526020013373ffffffffffffffffffffffffffffffffffffffff1681526020014281525060085f8381526020019081526020015f205f820151815f019081610aec9190612848565b506020820151816001019081610b029190612848565b506040820151816002015f6101000a81548173ffffffffffffffffffffffffffffffffffffffff021916908373ffffffffffffffffffffffffffffffffffffffff160217905550606082015181600301559050503373ffffffffffffffffffffffffffffffffffffffff16817f926d7d5325d38df17ab87f825e0c656a3e3399df22bc8044539385f9a64d938d8686604051610b9f929190612917565b60405180910390a360075f815480929190610bb990612979565b91905055508091505092915050565b610bda610bd3611000565b838361138b565b5050565b610be98484846105e7565b610bfd610bf4611000565b85858585611564565b50505050565b6060610c0e82610f41565b505f610c18611710565b90505f815111610c365760405180602001604052805f815250610c61565b80610c4084611726565b604051602001610c519291906129fa565b6040516020818303038152906040525b915050919050565b60075481565b5f60055f8473ffffffffffffffffffffffffffffffffffffffff1673ffffffffffffffffffffffffffffffffffffffff1681526020019081526020015f205f8373ffffffffffffffffffffffffffffffffffffffff1673ffffffffffffffffffffffffffffffffffffffff1681526020019081526020015f205f9054906101000a900460ff16905092915050565b610d05611224565b5f73ffffffffffffffffffffffffffffffffffffffff168173ffffffffffffffffffffffffffffffffffffffff1603610d75575f6040517f1e4fbdf7000000000000000000000000000000000000000000000000000000008152600401610d6c9190611fff565b60405180910390fd5b610d7e816112ab565b50565b6008602052805f5260405f205f91509050805f018054610da090612632565b80601f0160208091040260200160405190810160405280929190818152602001828054610dcc90612632565b8015610e175780601f10610dee57610100808354040283529160200191610e17565b820191905f5260205f20905b815481529060010190602001808311610dfa57829003601f168201915b505050505090806001018054610e2c90612632565b80601f0160208091040260200160405190810160405280929190818152602001828054610e5890612632565b8015610ea35780601f10610e7a57610100808354040283529160200191610ea3565b820191905f5260205f20905b815481529060010190602001808311610e8657829003601f168201915b505050505090806002015f9054906101000a900473ffffffffffffffffffffffffffffffffffffffff16908060030154905084565b5f7f01ffc9a7000000000000000000000000000000000000000000000000000000007bffffffffffffffffffffffffffffffffffffffffffffffffffffffff1916827bffffffffffffffffffffffffffffffffffffffffffffffffffffffff1916149050919050565b5f5f610f4c836117f0565b90505f73ffffffffffffffffffffffffffffffffffffffff168173ffffffffffffffffffffffffffffffffffffffff1603610fbe57826040517f7e273289000000000000000000000000000000000000000000000000000000008152600401610fb59190612235565b60405180910390fd5b80915050919050565b5f60045f8381526020019081526020015f205f9054906101000a900473ffffffffffffffffffffffffffffffffffffffff169050919050565b5f33905090565b6110148383836001611829565b505050565b5f5f611024846117f0565b90505f73ffffffffffffffffffffffffffffffffffffffff168373ffffffffffffffffffffffffffffffffffffffff1614611065576110648184866119e8565b5b5f73ffffffffffffffffffffffffffffffffffffffff168173ffffffffffffffffffffffffffffffffffffffff16146110f0576110a45f855f5f611829565b600160035f8373ffffffffffffffffffffffffffffffffffffffff1673ffffffffffffffffffffffffffffffffffffffff1681526020019081526020015f205f82825403925050819055505b5f73ffffffffffffffffffffffffffffffffffffffff168573ffffffffffffffffffffffffffffffffffffffff161461116f57600160035f8773ffffffffffffffffffffffffffffffffffffffff1673ffffffffffffffffffffffffffffffffffffffff1681526020019081526020015f205f82825401925050819055505b8460025f8681526020019081526020015f205f6101000a81548173ffffffffffffffffffffffffffffffffffffffff021916908373ffffffffffffffffffffffffffffffffffffffff160217905550838573ffffffffffffffffffffffffffffffffffffffff168273ffffffffffffffffffffffffffffffffffffffff167fddf252ad1be2c89b69c2b068fc378daa952ba7f163c4a11628f55a4df523b3ef60405160405180910390a4809150509392505050565b61122c611000565b73ffffffffffffffffffffffffffffffffffffffff1661124a6109c8565b73ffffffffffffffffffffffffffffffffffffffff16146112a95761126d611000565b6040517f118cdaa70000000000000000000000000000000000000000000000000000000081526004016112a09190611fff565b60405180910390fd5b565b5f60065f9054906101000a900473ffffffffffffffffffffffffffffffffffffffff1690508160065f6101000a81548173ffffffffffffffffffffffffffffffffffffffff021916908373ffffffffffffffffffffffffffffffffffffffff1602179055508173ffffffffffffffffffffffffffffffffffffffff168173ffffffffffffffffffffffffffffffffffffffff167f8be0079c531659141344cd1fd0a4f28419497f9722a3daafe3b4186f6b6457e060405160405180910390a35050565b611387828260405180602001604052805f815250611aab565b5050565b5f73ffffffffffffffffffffffffffffffffffffffff168373ffffffffffffffffffffffffffffffffffffffff16036113fb575f6040517fa9fbf51f0000000000000000000000000000000000000000000000000000000081526004016113f29190611fff565b60405180910390fd5b5f73ffffffffffffffffffffffffffffffffffffffff168273ffffffffffffffffffffffffffffffffffffffff160361146b57816040517f5b08ba180000000000000000000000000000000000000000000000000000000081526004016114629190611fff565b60405180910390fd5b8060055f8573ffffffffffffffffffffffffffffffffffffffff1673ffffffffffffffffffffffffffffffffffffffff1681526020019081526020015f205f8473ffffffffffffffffffffffffffffffffffffffff1673ffffffffffffffffffffffffffffffffffffffff1681526020019081526020015f205f6101000a81548160ff0219169083151502179055508173ffffffffffffffffffffffffffffffffffffffff168373ffffffffffffffffffffffffffffffffffffffff167f17307eab39ab6107e8899845ad3d59bd9653f200f220920489ca2b5937696c31836040516115579190611eb9565b60405180910390a3505050565b5f8373ffffffffffffffffffffffffffffffffffffffff163b1115611709578273ffffffffffffffffffffffffffffffffffffffff1663150b7a02868685856040518563ffffffff1660e01b81526004016115c29493929190612a6f565b6020604051808303815f875af19250505080156115fd57506040513d601f19601f820116820180604052508101906115fa9190612acd565b60015b61167e573d805f811461162b576040519150601f19603f3d011682016040523d82523d5f602084013e611630565b606091505b505f81510361167657836040517f64a0ae9200000000000000000000000000000000000000000000000000000000815260040161166d9190611fff565b60405180910390fd5b805160208201fd5b63150b7a0260e01b7bffffffffffffffffffffffffffffffffffffffffffffffffffffffff1916817bffffffffffffffffffffffffffffffffffffffffffffffffffffffff19161461170757836040517f64a0ae920000000000000000000000000000000000000000000000000000000081526004016116fe9190611fff565b60405180910390fd5b505b5050505050565b606060405180602001604052805f815250905090565b60605f600161173484611ace565b0190505f8167ffffffffffffffff81111561175257611751612256565b5b6040519080825280601f01601f1916602001820160405280156117845781602001600182028036833780820191505090505b5090505f82602083010190505b6001156117e5578080600190039150507f3031323334353637383961626364656600000000000000000000000000000000600a86061a8153600a85816117da576117d9612af8565b5b0494505f8503611791575b819350505050919050565b5f60025f8381526020019081526020015f205f9054906101000a900473ffffffffffffffffffffffffffffffffffffffff169050919050565b808061186157505f73ffffffffffffffffffffffffffffffffffffffff168273ffffffffffffffffffffffffffffffffffffffff1614155b15611993575f61187084610f41565b90505f73ffffffffffffffffffffffffffffffffffffffff168373ffffffffffffffffffffffffffffffffffffffff16141580156118da57508273ffffffffffffffffffffffffffffffffffffffff168173ffffffffffffffffffffffffffffffffffffffff1614155b80156118ed57506118eb8184610c6f565b155b1561192f57826040517fa9fbf51f0000000000000000000000000000000000000000000000000000000081526004016119269190611fff565b60405180910390fd5b811561199157838573ffffffffffffffffffffffffffffffffffffffff168273ffffffffffffffffffffffffffffffffffffffff167f8c5be1e5ebec7d5bd14f71427d1e84f3dd0314c0f7b2291e5b200ac8c7c3b92560405160405180910390a45b505b8360045f8581526020019081526020015f205f6101000a81548173ffffffffffffffffffffffffffffffffffffffff021916908373ffffffffffffffffffffffffffffffffffffffff16021790555050505050565b6119f3838383611c1f565b611aa6575f73ffffffffffffffffffffffffffffffffffffffff168373ffffffffffffffffffffffffffffffffffffffff1603611a6757806040517f7e273289000000000000000000000000000000000000000000000000000000008152600401611a5e9190612235565b60405180910390fd5b81816040517f177e802f000000000000000000000000000000000000000000000000000000008152600401611a9d929190612b25565b60405180910390fd5b505050565b611ab58383611cdf565b611ac9611ac0611000565b5f858585611564565b505050565b5f5f5f90507a184f03e93ff9f4daa797ed6e38ed64bf6a1f0100000000000000008310611b2a577a184f03e93ff9f4daa797ed6e38ed64bf6a1f0100000000000000008381611b2057611b1f612af8565b5b0492506040810190505b6d04ee2d6d415b85acef81000000008310611b67576d04ee2d6d415b85acef81000000008381611b5d57611b5c612af8565b5b0492506020810190505b662386f26fc100008310611b9657662386f26fc100008381611b8c57611b8b612af8565b5b0492506010810190505b6305f5e1008310611bbf576305f5e1008381611bb557611bb4612af8565b5b0492506008810190505b6127108310611be4576127108381611bda57611bd9612af8565b5b0492506004810190505b60648310611c075760648381611bfd57611bfc612af8565b5b0492506002810190505b600a8310611c16576001810190505b80915050919050565b5f5f73ffffffffffffffffffffffffffffffffffffffff168373ffffffffffffffffffffffffffffffffffffffff1614158015611cd657508273ffffffffffffffffffffffffffffffffffffffff168473ffffffffffffffffffffffffffffffffffffffff161480611c975750611c968484610c6f565b5b80611cd557508273ffffffffffffffffffffffffffffffffffffffff16611cbd83610fc7565b73ffffffffffffffffffffffffffffffffffffffff16145b5b90509392505050565b5f73ffffffffffffffffffffffffffffffffffffffff168273ffffffffffffffffffffffffffffffffffffffff1603611d4f575f6040517f64a0ae92000000000000000000000000000000000000000000000000000000008152600401611d469190611fff565b60405180910390fd5b5f611d5b83835f611019565b90505f73ffffffffffffffffffffffffffffffffffffffff168173ffffffffffffffffffffffffffffffffffffffff1614611dcd575f6040517f73c6ac6e000000000000000000000000000000000000000000000000000000008152600401611dc49190611fff565b60405180910390fd5b505050565b604051806080016040528060608152602001606081526020015f73ffffffffffffffffffffffffffffffffffffffff1681526020015f81525090565b5f604051905090565b5f5ffd5b5f5ffd5b5f7fffffffff0000000000000000000000000000000000000000000000000000000082169050919050565b611e5381611e1f565b8114611e5d575f5ffd5b50565b5f81359050611e6e81611e4a565b92915050565b5f60208284031215611e8957611e88611e17565b5b5f611e9684828501611e60565b91505092915050565b5f8115159050919050565b611eb381611e9f565b82525050565b5f602082019050611ecc5f830184611eaa565b92915050565b5f81519050919050565b5f82825260208201905092915050565b8281835e5f83830152505050565b5f601f19601f8301169050919050565b5f611f1482611ed2565b611f1e8185611edc565b9350611f2e818560208601611eec565b611f3781611efa565b840191505092915050565b5f6020820190508181035f830152611f5a8184611f0a565b905092915050565b5f819050919050565b611f7481611f62565b8114611f7e575f5ffd5b50565b5f81359050611f8f81611f6b565b92915050565b5f60208284031215611faa57611fa9611e17565b5b5f611fb784828501611f81565b91505092915050565b5f73ffffffffffffffffffffffffffffffffffffffff82169050919050565b5f611fe982611fc0565b9050919050565b611ff981611fdf565b82525050565b5f6020820190506120125f830184611ff0565b92915050565b61202181611fdf565b811461202b575f5ffd5b50565b5f8135905061203c81612018565b92915050565b5f5f6040838503121561205857612057611e17565b5b5f6120658582860161202e565b925050602061207685828601611f81565b9150509250929050565b5f5f5f6060848603121561209757612096611e17565b5b5f6120a48682870161202e565b93505060206120b58682870161202e565b92505060406120c686828701611f81565b9150509250925092565b5f82825260208201905092915050565b5f6120ea82611ed2565b6120f481856120d0565b9350612104818560208601611eec565b61210d81611efa565b840191505092915050565b61212181611fdf565b82525050565b61213081611f62565b82525050565b5f608083015f8301518482035f86015261215082826120e0565b9150506020830151848203602086015261216a82826120e0565b915050604083015161217f6040860182612118565b5060608301516121926060860182612127565b508091505092915050565b5f6020820190508181035f8301526121b58184612136565b905092915050565b5f5f604083850312156121d3576121d2611e17565b5b5f6121e085828601611f81565b92505060206121f18582860161202e565b9150509250929050565b5f602082840312156122105761220f611e17565b5b5f61221d8482850161202e565b91505092915050565b61222f81611f62565b82525050565b5f6020820190506122485f830184612226565b92915050565b5f5ffd5b5f5ffd5b7f4e487b71000000000000000000000000000000000000000000000000000000005f52604160045260245ffd5b61228c82611efa565b810181811067ffffffffffffffff821117156122ab576122aa612256565b5b80604052505050565b5f6122bd611e0e565b90506122c98282612283565b919050565b5f67ffffffffffffffff8211156122e8576122e7612256565b5b6122f182611efa565b9050602081019050919050565b828183375f83830152505050565b5f61231e612319846122ce565b6122b4565b90508281526020810184848401111561233a57612339612252565b5b6123458482856122fe565b509392505050565b5f82601f8301126123615761236061224e565b5b813561237184826020860161230c565b91505092915050565b5f5f604083850312156123905761238f611e17565b5b5f83013567ffffffffffffffff8111156123ad576123ac611e1b565b5b6123b98582860161234d565b925050602083013567ffffffffffffffff8111156123da576123d9611e1b565b5b6123e68582860161234d565b9150509250929050565b6123f981611e9f565b8114612403575f5ffd5b50565b5f81359050612414816123f0565b92915050565b5f5f604083850312156124305761242f611e17565b5b5f61243d8582860161202e565b925050602061244e85828601612406565b9150509250929050565b5f67ffffffffffffffff82111561247257612471612256565b5b61247b82611efa565b9050602081019050919050565b5f61249a61249584612458565b6122b4565b9050828152602081018484840111156124b6576124b5612252565b5b6124c18482856122fe565b509392505050565b5f82601f8301126124dd576124dc61224e565b5b81356124ed848260208601612488565b91505092915050565b5f5f5f5f6080858703121561250e5761250d611e17565b5b5f61251b8782880161202e565b945050602061252c8782880161202e565b935050604061253d87828801611f81565b925050606085013567ffffffffffffffff81111561255e5761255d611e1b565b5b61256a878288016124c9565b91505092959194509250565b5f5f6040838503121561258c5761258b611e17565b5b5f6125998582860161202e565b92505060206125aa8582860161202e565b9150509250929050565b5f6080820190508181035f8301526125cc8187611f0a565b905081810360208301526125e08186611f0a565b90506125ef6040830185611ff0565b6125fc6060830184612226565b95945050505050565b7f4e487b71000000000000000000000000000000000000000000000000000000005f52602260045260245ffd5b5f600282049050600182168061264957607f821691505b60208210810361265c5761265b612605565b5b50919050565b5f6060820190506126755f830186611ff0565b6126826020830185612226565b61268f6040830184611ff0565b949350505050565b5f819050815f5260205f209050919050565b5f6020601f8301049050919050565b5f82821b905092915050565b5f600883026126f37fffffffffffffffffffffffffffffffffffffffffffffffffffffffffffffffff826126b8565b6126fd86836126b8565b95508019841693508086168417925050509392505050565b5f819050919050565b5f61273861273361272e84611f62565b612715565b611f62565b9050919050565b5f819050919050565b6127518361271e565b61276561275d8261273f565b8484546126c4565b825550505050565b5f5f905090565b61277c61276d565b612787818484612748565b505050565b5f5b828110156127ad576127a25f828401612774565b60018101905061278e565b505050565b601f82111561280057828211156127ff576127cc81612697565b6127d5836126a9565b6127de856126a9565b60208610156127eb575f90505b8083016127fa8284038261278c565b505050505b5b505050565b5f82821c905092915050565b5f6128205f1984600802612805565b1980831691505092915050565b5f6128388383612811565b9150826002028217905092915050565b61285182611ed2565b67ffffffffffffffff81111561286a57612869612256565b5b6128748254612632565b61287f8282856127b2565b5f60209050601f8311600181146128b0575f841561289e578287015190505b6128a8858261282d565b86555061290f565b601f1984166128be86612697565b5f5b828110156128e5578489015182556001820191506020850194506020810190506128c0565b8683101561290257848901516128fe601f891682612811565b8355505b6001600288020188555050505b505050505050565b5f6040820190508181035f83015261292f8185611f0a565b905081810360208301526129438184611f0a565b90509392505050565b7f4e487b71000000000000000000000000000000000000000000000000000000005f52601160045260245ffd5b5f61298382611f62565b91507fffffffffffffffffffffffffffffffffffffffffffffffffffffffffffffffff82036129b5576129b461294c565b5b600182019050919050565b5f81905092915050565b5f6129d482611ed2565b6129de81856129c0565b93506129ee818560208601611eec565b80840191505092915050565b5f612a0582856129ca565b9150612a1182846129ca565b91508190509392505050565b5f81519050919050565b5f82825260208201905092915050565b5f612a4182612a1d565b612a4b8185612a27565b9350612a5b818560208601611eec565b612a6481611efa565b840191505092915050565b5f608082019050612a825f830187611ff0565b612a8f6020830186611ff0565b612a9c6040830185612226565b8181036060830152612aae8184612a37565b905095945050505050565b5f81519050612ac781611e4a565b92915050565b5f60208284031215612ae257612ae1611e17565b5b5f612aef84828501612ab9565b91505092915050565b7f4e487b71000000000000000000000000000000000000000000000000000000005f52601260045260245ffd5b5f604082019050612b385f830185611ff0565b612b456020830184612226565b939250505056fea26469706673582212204b007b25d5a894a294086b616eb532da4cfc1a41c742bfc8ccc646c8e2ac4b5364736f6c63430008230033","linkReferences":{}},"methodIdentifiers":{"approve(address,uint256)":"095ea7b3","balanceOf(address)":"70a08231","files(uint256)":"f4c714b4","getApproved(uint256)":"081812fc","getFile(uint256)":"2bfda313","isApprovedForAll(address,address)":"e985e9c5","isOwner(uint256,address)":"5a5d096c","name()":"06fdde03","owner()":"8da5cb5b","ownerOf(uint256)":"6352211e","renounceOwnership()":"715018a6","safeTransferFrom(address,address,uint256)":"42842e0e","safeTransferFrom(address,address,uint256,bytes)":"b88d4fde","setApprovalForAll(address,bool)":"a22cb465","supportsInterface(bytes4)":"01ffc9a7","symbol()":"95d89b41","tokenCounter()":"d082e381","tokenURI(uint256)":"c87b56dd","transferFrom(address,address,uint256)":"23b872dd","transferOwnership(address)":"f2fde38b","uploadFile(string,string)":"996d50bf"},"id":38}